:100000000C9434000C943E000C943E000C943E0082
:100010000C943E000C943E000C943E000C943E0068
:100020000C943E000C943E000C943E000C943E0058
:100030000C943E000C943E000C943E000C943E0048
:100040000C943E000C943E000C943E000C943E0038
:100050000C943E000C943E000C943E000C943E0028
:100060000C943E000C943E0011241FBECFEFD8E04C
:10007000DEBFCDBF0E9440000C94C8000C9400006D
:100080008AB1806E8AB987B1816087B984B187608F
:1000900084B984B5816084BD85B5856085BD84B52E
:1000A000806A84BD17BC18BC68EC70E088EC90E0F6
:1000B0000E94A0002FEF8BE792E9215080409040F2
:1000C000E1F700C0000068EC70E088EC90E00E946E
:1000D000A9002FEF8BE792E9215080409040E1F793
:1000E00000C0000068EC70E088EC90E00E94B40072
:1000F0002FEF8BE792E9215080409040E1F700C05C
:10010000000068EC70E088EC90E00E94BE002FEFE9
:100110008BE792E9215080409040E1F700C0000059
:1001200060E070E080E090E00E94A0002FEF8BE79D
:1001300092E9215080409040E1F700C00000B4CF28
:1001400095B19E7F95B99BB19F779BB987BD68BDDF
:10015000089595B1916095B99BB190689BB98095D0
:1001600087BD609568BD089595B19E7F95B99BB197
:1001700090689BB9809587BD68BD089595B19160E1
:1001800095B99BB19F779BB987BD609568BD089570
:04019000F894FFCF11
:00000001FF
