S0100000726F626F746361722E73726563B8
S11300000C9434000C943E000C943E000C943E007E
S11300100C943E000C943E000C943E000C943E0064
S11300200C943E000C943E000C943E000C943E0054
S11300300C943E000C943E000C943E000C943E0044
S11300400C943E000C943E000C943E000C943E0034
S11300500C943E000C943E000C943E000C943E0024
S11300600C943E000C943E0011241FBECFEFD8E048
S1130070DEBFCDBF0E9440000C9475000C940000BC
S11300808AB1806E8AB987B1816087B984B187608B
S113009084B984B5816084BD85B5856085BD84B52A
S11300A0806A84BD17BC18BC62E370E088EC90E001
S11300B00E94610064E670E088EC90E00E946A00AF
S11300C0F3CF95B19E7F95B99BB19F779BB987BDBF
S11300D068BD089595B1916095B99BB190689BB93D
S11100E0809587BD609568BD0895F894FFCFA4
S9030000FC
