:100000000C9434000C943E000C943E000C943E0082
:100010000C943E000C943E000C943E000C943E0068
:100020000C943E000C943E000C943E000C943E0058
:100030000C943E000C943E000C943E000C943E0048
:100040000C943E000C943E000C943E000C943E0038
:100050000C943E000C943E000C943E000C943E0028
:100060000C943E000C943E0011241FBECFEFD8E04C
:10007000DEBFCDBF0E9440000C9474000C940000C1
:100080008AB1806A8AB987B1896087B984B187608B
:1000900084B988B1886088B92FEF89E698E121504A
:1000A00080409040E1F700C0000088B1877F88B9A8
:1000B000E0E8F0E0808182608083A1E8B0E08C918C
:1000C0008B618C9387E893E19093870080938600FF
:1000D0008081806A8083109289001092880010923B
:0C00E0008B0010928A00FFCFF894FFCF35
:00000001FF
