:100000000C9434000C9449000C9449000C94490061
:100010000C9449000C9449000C9449000C9449003C
:100020000C9449000C9449000C9449000C9449002C
:100030000C9449000C9449000C9449000C9449001C
:100040000C9449000C9449000C9449000C9449000C
:100050000C9449000C9449000C9449000C944900FC
:100060000C9449000C94490011241FBECFEFD8E036
:10007000DEBFCDBF11E0A0E0B1E0EAE5F1E002C0F3
:1000800005900D92A230B107D9F70E944B000C9455
:10009000AB000C9400008AB1806A8AB98AB1806E84
:1000A0008AB984B1876084B984B5816084BD85B51F
:1000B000856085BD84B5806A84BD17BC18BC0E946C
:1000C0007F00FDCF95B19E7F95B99BB19F779BB97E
:1000D00087BD68BD089595B19E7F95B99BB1906825
:1000E0009BB9809587BD68BD089595B1916095B91C
:1000F0009BB19F779BB987BD609568BD0895CF93ED
:10010000DF9386B1309903C0C0E081E002C0C1E056
:1001100080E0319902C0D0E003C0D1E0C0E080E0CF
:10012000882341F0609100018091000170E090E02F
:100130000E946200CC2329F08091000190E00E948F
:100140006B00DD2329F08091000190E00E94750092
:0A015000DF91CF910895F894FFCFDE
:02015A0064003F
:00000001FF
