S0100000726F626F746361722E73726563B8
S11300000C9434000C943E000C943E000C943E007E
S11300100C943E000C943E000C943E000C943E0064
S11300200C943E000C943E000C943E000C943E0054
S11300300C943E000C943E000C943E000C943E0044
S11300400C943E000C943E000C943E000C943E0034
S11300500C943E000C943E000C943E000C943E0024
S11300600C943E000C943E0011241FBECFEFD8E048
S1130070DEBFCDBF0E9440000C9450000C940000E1
S11300808AB1806A8AB987B1816087B984B187608F
S113009084B90E944C00FDCF83B183B183B108952C
S10700A0F894FFCFFE
S9030000FC
