S0100000726F626F746361722E73726563B8
S11300000C9434000C9451000C9451000C94510045
S11300100C9451000C9451000C9451000C94510018
S11300200C9451000C9451000C9451000C94510008
S11300300C9451000C9451000C9451000C945100F8
S11300400C9451000C9451000C9451000C945100E8
S11300500C9451000C9451000C9451000C945100D8
S11300600C9451000C94510011241FBECFEFD8E022
S1130070DEBFCDBF11E0A0E0B1E0EEE5FAE002C0E2
S113008005900D92AE30B107D9F721E0AEE0B1E0B2
S113009001C01D92A131B207E1F70E94B0010C9496
S11300A02D050C9400000F931F93CF93DF938B01C6
S11300B0D42F880F0E940302882351F0C1E00CC0A2
S11300C0F801EC0FF11D80810E943102CF5F01C065
S11300D0C0E0CD17A8F3C0E00E9429028C2FDF9165
S11300E0CF911F910F9108950F931F93CF93DF9397
S11300F000D000D01F92CDB7DEB7082F683071F45E
S1130100882311F088E001C080E08093000141E081
S113011060E071E087E20E94530026C080910001F4
S1130120162F182B1983802F807F812B84608A835C
S11301308B7F8B8320E1029FC0011124812B84607B
S11301408C838B7F8D8345E0BE016F5F7F4F87E299
S11301500E94530010FD08C0033030F4E3EFF1E0D7
S11301603197F1F700C000000F900F900F900F909F
S11301700F90DF91CF911F910F910895CF93DF934B
S1130180D82FC62FE62FF0E0EF5FFE4F80818D2B36
S113019060E080680E947400D0930F01C093100146
S11301A0DF91CF91089560E081E00E947400109285
S11301B0100110920F010895CF93C82F90910F0151
S11301C080910E01981710F4CA3041F46091100127
S11301D06F5F6093100180E00E94BE00CA3049F056
S11301E080910F018F5F80930F0161E08C2F0E943B
S11301F07400CF910895CF93DF93EC0103C021964F
S11302000E94DC0088818111FACFDF91CF9108959B
S11302100F931F93CF93DF9300D000D000D0CDB7BE
S1130220DEB7082F80E3898394E39A838B8380E28B
S11302308C8394E29D838E8380E180930E01E1E0C0
S1130240F1E08081805F82838181805F838384B1D8
S1130250806284B985B1806285B90E94FD018BE416
S11302609DE10197F1F700C0000043E0BE016F5F1C
S11302707F4F87E20E945300182F81EE94E001978C
S1130280F1F700C0000043E0BE016F5F7F4F87E2DB
S11302900E945300182B43E0BE016F5F7F4F87E23B
S11302A00E945300182B43E0BE016C5F7F4F87E22E
S11302B00E945300182B60E088E20E947400812B96
S11302C019F085B18F7D85B960E08CE00E947400DF
S11302D060E086E00E94740060E081E00E947400A7
S11302E060E0802F0E94740026960FB6F894DEBF5B
S11302F00FBECDBFDF91CF911F910F91089568E09C
S11303000E94740008950F931F93CF93DF93CDB78A
S1130310DEB764970FB6F894DEBF0FBECDBF9F93D0
S11303208F9385E091E09F938F938E010F5F1F4F12
S11303301F930F930E944302C8010E94FB000F9079
S11303400F900F900F900F900F9064960FB6F89443
S1130350DEBF0FBECDBFDF91CF911F910F910895E6
S11303608AB1806A8AB98AB1806E8AB984B1876099
S113037084B984B5816084BD85B5856085BD84B547
S1130380806A84BD17BC18BC82E00E94080180E02A
S113039090E00E947F012FEF89E698E12150804090
S11303A09040E1F700C0000081E090E00E947F01EE
S11303B02FEF89E698E1215080409040E1F700C09A
S11303C000000E94D30060E080E00E94BE0088EC40
S11303D090E00E94830161E081E00E94BE0088E019
S11303E091E00E94FB002FEF83ED90E321508040C9
S11303F09040E1F700C00000E4CF1092B9008CE017
S11304008093B800089594EA9093BC009091BC0046
S11304109923E4F79091B900987F983011F09031C6
S113042091F48093BB0084E88093BC008091BC006D
S11304308823E4F78091B900887F883131F08034D3
S113044031F480E0089581E0089580E0089581E02A
S1130450089584E98093BC008091BC0084FDFCCFA6
S113046008958093BB0084E88093BC008091BC0015
S11304708823E4F78091B900887F883211F081E005
S1130480089580E00895AEE0B0E0E9E4F2E00C9471
S113049004050D891E8986E08C831A8309838FEFF6
S11304A09FE79E838D83AE01475E5F4F6F89788D92
S11304B0CE0101960E946502EF81F885E00FF11FDD
S11304C010822E96E4E00C942005ABE0B0E0EBE65D
S11304D0F2E00C94F6046C017B018A01FC011782A2
S11304E01682838181FFCCC1CE0101963C01F601C5
S11304F09381F70193FD859193FF81917F01882377
S113050009F4BAC1853239F493FD859193FF819141
S11305107F01853229F4B60190E00E945C04E7CFA4
S1130520912C212C312CFFE1F315D8F08B3279F08A
S113053038F4803279F08332A1F4232D20611DC078
S11305408D3261F0803369F4232D216016C0832D30
S11305508260382EE32DE4603E2E2AC0F32DF8602D
S11305601DC037FC2DC020ED280F2A3040F08E32FC
S1130570B9F436FC81C1232D2064322E19C036FE15
S113058006C08AE0989E200D1124922E11C0EAE044
S11305902E9E200D1124222EF32DF0623F2E08C032
S11305A08C3621F4832D8068382E02C0883641F4BD
S11305B0F70193FD859193FF81917F018111B3CF61
S11305C0982F9F7D9554933028F40C5F1F4F9FE321
S11305D099830DC0833631F0833771F0833509F088
S11305E059C021C0F801808189830E5F1F4F882480
S11305F08394912C530113C02801F2E04F0E511C37
S1130600F801A080B18036FE03C0692D70E002C0FD
S11306106FEF7FEFC5010E9451044C018201F32D5D
S1130620FF773F2E16C0280122E0420E511CF8012C
S1130630A080B18036FE03C0692D70E002C06FEF68
S11306407FEFC5010E9446044C01F32DF0683F2E54
S1130650820133FC1BC0822D90E088169906B0F409
S1130660B60180E290E00E945C042A94F4CFF50184
S113067037FC859137FE81915F01B60190E00E94BD
S11306805C0421102A9421E0821A910881149104B7
S113069071F7E8C0843611F0893641F5F80137FE68
S11306A007C060817181828193810C5F1F4F08C0F4
S11306B060817181072E000C880B990B0E5F1F4F10
S11306C0F32DFF763F2E97FF09C090958095709586
S11306D061957F4F8F4F9F4FF0683F2E2AE030E0A7
S11306E0A3010E949804882E861845C0853731F4EA
S11306F0232D2F7EB22E2AE030E025C0932D997F42
S1130700B92E8F36C1F018F4883579F0B5C080372A
S113071019F0883721F0B0C0E92FE061BE2EB4FE95
S11307200DC0FB2DF460BF2E09C034FE0AC0292F72
S11307302660B22E06C028E030E005C020E130E09B
S113074002C020E132E0F801B7FE07C06081718188
S1130750828193810C5F1F4F06C06081718180E0AC
S113076090E00E5F1F4FA3010E949804882E861804
S1130770FB2DFF773F2E36FE0DC0232D2E7FA22E9C
S1130780891458F434FE0BC032FC09C0832D8E7ECC
S1130790A82E05C0B82CA32C03C0B82C01C0B92CBA
S11307A0A4FE0FC0FE01E80DF11D8081803321F409
S11307B09A2D997EA92E09C0A2FE06C0B394B394C3
S11307C004C08A2D867809F0B394A3FC11C0A0FE5E
S11307D006C0B21488F4280C922C9B180EC0B214D4
S11307E060F4B60180E290E00E945C04B394F7CF19
S11307F0B21418F42B1802C0982C212CA4FE10C09B
S1130800B60180E390E00E945C04A2FE17C0A1FC44
S113081003C088E790E002C088E590E0B6010CC010
S11308208A2D867859F0A1FE02C08BE201C080E2D5
S1130830A7FC8DE2B60190E00E945C04891438F4B0
S1130840B60180E390E00E945C049A94F7CF8A9406
S1130850F301E80DF11D8081B60190E00E945C0473
S11308608110F5CF222009F442CEB60180E290E057
S11308700E945C042A94F6CFF6018681978102C017
S11308808FEF9FEF2B96E2E10C941205FC0105908B
S1130890615070400110D8F7809590958E0F9F1F7E
S11308A00895FC016150704001900110D8F78095C3
S11308B090958E0F9F1F08950F931F93CF93DF93EF
S11308C0FB01238121FD03C08FEF9FEF2CC022FF8A
S11308D016C046815781248135814217530744F459
S11308E0A081B1819D012F5F3F4F318320838C9381
S11308F0268137812F5F3F4F3783268314C08B01B6
S1130900EC01FB010084F185E02D0995892BE1F6CA
S1130910D80116968D919C911797019617969C93E2
S11309208E931697CE01DF91CF911F910F91089569
S1130930FA01AA27283051F1203181F1E8946F930C
S11309406E7F6E5F7F4F8F4F9F4FAF4FB1E03ED0B2
S1130950B4E03CD0670F781F891F9A1FA11D680F50
S1130960791F8A1F911DA11D6A0F711D811D911D83
S1130970A11D20D009F468943F912AE0269F1124F8
S11309803019305D3193DEF6CF010895462F47705C
S1130990405D4193B3E00FD0C9F7F6CF462F4F70B7
S11309A0405D4A3318F0495D31FD4052419302D015
S11309B0A9F7EACFB4E0A6959795879577956795BB
S11309C0BA95C9F700976105710508959B01AC01BB
S11309D00A2E06945795479537952795BA95C9F7E2
S11309E0620F731F841F951FA01D08952F923F92BD
S11309F04F925F926F927F928F929F92AF92BF922B
S1130A00CF92DF92EF92FF920F931F93CF93DF93D6
S1130A10CDB7DEB7CA1BDB0B0FB6F894DEBF0FBE33
S1130A20CDBF09942A88398848885F846E847D8480
S1130A308C849B84AA84B984C884DF80EE80FD8082
S1130A400C811B81AA81B981CE0FD11D0FB6F894F8
S1110A50DEBF0FBECDBFED010895F894FFCFB9
S1110A5E0880C00000256400746573740000F5
S9030000FC
