:100000000C9434000C9449000C9449000C94490061
:100010000C9449000C9449000C9449000C9449003C
:100020000C9449000C9449000C9449000C9449002C
:100030000C9449000C9449000C9449000C9449001C
:100040000C9449000C9449000C9449000C9449000C
:100050000C9449000C9449000C9449000C944900FC
:100060000C9449000C94490011241FBECFEFD8E036
:10007000DEBFCDBF11E0A0E0B1E0E2E7F1E002C0F9
:1000800005900D92A230B107D9F70E944B000C9455
:10009000B7000C9400008AB1806A8AB98AB1806E78
:1000A0008AB984B1876084B984B5816084BD85B51F
:1000B000856085BD84B5806A84BD17BC18BC0E946C
:1000C0008000FDCF95B19E7F95B99BB19F779BB97D
:1000D00087BD68BD089595B19E7F95B99BB1906825
:1000E0009BB9982F909597BD88BD089595B1916063
:1000F00095B99BB19F779BB987BD809588BD0895C1
:10010000CF93DF9386B186B18670863019F0C0E058
:1001100091E002C0C1E090E086B18570853011F0B9
:10012000D0E003C0D1E0C0E090E086B187708730B6
:1001300019F4D0E0C0E091E0992341F06091000112
:100140008091000170E090E00E946200CC2329F0D1
:100150008091000190E00E946B00DD2329F08091E6
:10016000000190E00E947600DF91CF910895F8940D
:02017000FFCFBF
:02017200280063
:00000001FF
