:100000000C9434000C9451000C9451000C949B00FF
:100010000C9451000C9451000C9451000C9451001C
:100020000C9451000C9451000C9451000C9451000C
:100030000C9451000C9451000C9451000C945100FC
:100040000C9451000C9451000C9451000C945100EC
:100050000C9451000C9451000C9451000C945100DC
:100060000C9451000C94510011241FBECFEFD8E026
:10007000DEBFCDBF11E0A0E0B1E0E4ECF2E002C0F1
:1000800005900D92A230B107D9F721E0A2E0B1E0CE
:1000900001C01D92A330B207E1F70E9453000C94F7
:1000A00060010C9400008AB1806A8AB987B18160CE
:1000B00087B984B1876084B9E8E6F0E08081816027
:1000C00080838BB381608BBBEBE6F0E0808180683E
:1000D00080837894E0E8F0E0808182608083A1E80A
:1000E000B0E08C918B618C9387E893E190938700CB
:1000F000809386008081806A8083109289001092AC
:10010000880010928B0010928A000E94C000FDCFE0
:1001100080910201813041F018F0823049F0089559
:1001200081E080930201089582E0809302010895A6
:100130001092020108951F920F920FB60F92112490
:100140002F933F934F935F936F937F938F939F93DF
:10015000AF93BF93EF93FF931F9B0E948800FF9183
:10016000EF91BF91AF919F918F917F916F915F912F
:100170004F913F912F910F900FBE0F901F901895A8
:1001800080910201811103C00E9422010895809193
:100190000201813019F40E94290108958091020121
:1001A000823011F40E94590108959C0195B1966026
:1001B00095B98BB18BB930938900209388007093E7
:1001C0008B0060938A00089525B1276025B92BB173
:1001D00020682BB927E833E1A901481B590B50933C
:1001E000890040938800261B370B30938B002093A7
:1001F0008A000895AC0195B1966095B99BB190685D
:100200009BB927E833E1241B350B309389002093F9
:10021000880050938B0040938A000895AC0195B1FB
:10022000976095B98BB18BB9509389004093880042
:1002300027E833E1C901841B950B90938B008093D1
:100240008A00089564E670E084E690E00E94E4008D
:100250000895CF93DF9383B183B18871883119F00A
:10026000C0E091E002C0C1E090E083B180738033D0
:1002700011F0D0E003C0D1E0C0E090E0992341F05C
:10028000609100018091000170E090E00E94D50033
:10029000CC2329F08091000190E00E94FA00DD2338
:1002A00029F08091000190E00E940E01DF91CF9132
:1002B000089564E670E084E690E00E94D500089519
:0402C000F894FFCFE0
:0202C400280010
:00000001FF
