:100000000C9434000C9449000C9449000C94490061
:100010000C9449000C9449000C9449000C9449003C
:100020000C9449000C9449000C9449000C9449002C
:100030000C9449000C9449000C9449000C9449001C
:100040000C9449000C9449000C9449000C9449000C
:100050000C9449000C9449000C9449000C944900FC
:100060000C9449000C94490011241FBECFEFD8E036
:10007000DEBFCDBF11E0A0E0B1E0E4EEF0E002C0F1
:1000800005900D92A030B107D9F70E944B000C9457
:1000900070000C9400008AB1806A8AB987B18960C7
:1000A00087B984B1876084B9E0E8F0E0808182603C
:1000B0008083A1E8B0E08C918B618C9387E893E119
:1000C00090938700809386008081806A808310925D
:1000D00089001092880010928B0010928A00FFCF46
:0400E000F894FFCFC2
:00000001FF
