:100000000C9434000C943E000C943E000C943E0082
:100010000C943E000C943E000C943E000C943E0068
:100020000C943E000C943E000C943E000C943E0058
:100030000C943E000C943E000C943E000C943E0048
:100040000C943E000C943E000C943E000C943E0038
:100050000C943E000C943E000C943E000C943E0028
:100060000C943E000C943E0011241FBECFEFD8E04C
:10007000DEBFCDBF0E9440000C9455000C940000E0
:100080008AB1806E8AB987B1816087B984B187608F
:1000900084B984B5816084BD85B5856085BD84B52E
:0E00A000806A84BD17BC18BCFFCFF894FFCF58
:00000001FF
