S0100000726F626F746361722E73726563B8
S11300000C9434000C943E000C943E000C943E007E
S11300100C943E000C943E000C943E000C943E0064
S11300200C943E000C943E000C943E000C943E0054
S11300300C943E000C943E000C943E000C943E0044
S11300400C943E000C943E000C943E000C943E0034
S11300500C943E000C943E000C943E000C943E0024
S11300600C943E000C943E0011241FBECFEFD8E048
S1130070DEBFCDBF0E9440000C94C6000C9400006B
S11300808AB1806A8AB987B1816087B984B187608F
S113009084B9E0E8F0E0808182608083A1E8B0E088
S11300A08C918B618C9387E893E190938700809384
S11300B086008081806A8083109289001092880073
S11300C010928B0010928A000E949C00FDCF9C012C
S11300D095B1966095B98BB18BB930938900209313
S11300E0880070938B0060938A00089525B1266080
S11300F025B92BB120682BB927E833E1281B390B2C
S1130100309389002093880070938B0060938A0059
S113011008959C0195B1976095B98BB18BB93093D3
S113012089002093880087E893E1861B970B9093BE
S11301308B0080938A000895CF93DF9383B183B1BA
S11301408871883119F0C0E091E002C0C1E090E00C
S113015083B18073803311F0D0E003C0D1E0C0E0FC
S113016090E0992321F084E190E00E946700CC2381
S113017021F084E190E00E947600DD2321F084E107
S113018090E00E948900DF91CF910895F894FFCF09
S9030000FC
