S01400004D6F746F72636F6E74726F6C2E73726563FE
S11300000C9434000C943E000C943E000C943E007E
S11300100C943E000C943E000C943E000C943E0064
S11300200C943E000C943E000C943E000C943E0054
S11300300C943E000C943E000C943E000C943E0044
S11300400C943E000C943E000C943E000C943E0034
S11300500C943E000C943E000C943E000C943E0024
S11300600C943E000C943E0011241FBECFEFD8E048
S1130070DEBFCDBF0E9472000C94AC000C94000053
S113008026E025B91BB8909389008093880070936B
S11300908B0060938A00089527E025B920E82BB9E6
S11300A0909389008093880070938B0060938A00FA
S11300B0089526E025B920E82BB990938900809310
S11300C0880070938B0060938A00089527E025B917
S11300D01BB8909389008093880070938B00609381
S11300E08A0008958FE384B980E88AB9E0E8F0E0F3
S11300F0808182608083A1E8B0E08C918B618C93D5
S113010087E893E190938700809386008081806FD5
S1130110808384EC99E09093890080938800909385
S11301208B0080938A0060E070E080E090E00E94A1
S1130130400068E873E188E893E10E944C0060EDB8
S113014077E080ED97E00E94590068EE73E088EE56
S10F015093E00E946600E7CFF894FFCF14
S9030000FC
