:100000000C9434000C943E000C943E000C943E0082
:100010000C943E000C943E000C943E000C943E0068
:100020000C943E000C943E000C943E000C943E0058
:100030000C943E000C943E000C943E000C943E0048
:100040000C943E000C943E000C943E000C943E0038
:100050000C943E000C943E000C943E000C943E0028
:100060000C943E000C943E0011241FBECFEFD8E04C
:10007000DEBFCDBF0E944C000C9472000C940000B7
:1000800026E025B91BB8909389008093880070936F
:100090008B0060938A0008958FE384B980E88AB961
:1000A000E0E8F0E0808182608083A1E8B0E08C919C
:1000B0008B618C9387E893E190938700809386000F
:1000C0008081806A8083109289001092880010924B
:1000D0008B0010928A0060EA7FE080EA9FE00E9435
:0800E0004000F9CFF894FFCFB6
:00000001FF
