S01400004D6F746F72636F6E74726F6C2E73726563FE
S11300000C9434000C943E000C943E000C943E007E
S11300100C943E000C943E000C943E000C943E0064
S11300200C943E000C943E000C943E000C943E0054
S11300300C943E000C943E000C943E000C943E0044
S11300400C943E000C943E000C943E000C943E0034
S11300500C943E000C943E000C943E000C943E0024
S11300600C943E000C943E0011241FBECFEFD8E048
S1130070DEBFCDBF0E9459000C9487000C94000091
S113008026E025B91BB8909389008093880070936B
S11300908B0060938A00089527E025B920E82BB9E6
S11300A0909389008093880070938B0060938A00FA
S11300B008958FE384B980E88AB9E0E8F0E08081AC
S11300C082608083A1E8B0E08C918B618C9387E897
S11300D093E190938700809386008081806F808372
S11300E084EC99E0909389008093880090938B002E
S11300F080938A0068E873E188E893E10E944000F5
S113010060E070E080E090E00E944C00F3CFF8944F
S1050110FFCF1B
S9030000FC
